:020000040800F2
:10000000A806002089010008FD0B00080908000867
:100010004B09000819040008391900080000000005
:10002000000000000000000000000000491200086D
:10003000910600080000000061110008B9130008D3
:10004000A3010008A3010008A3010008A301000800
:10005000A3010008A3010008A3010008A3010008F0
:10006000A3010008A3010008A3010008A3010008E0
:10007000A3010008A3010008A3010008A3010008D0
:10008000A3010008A3010008A3010008A3010008C0
:10009000A3010008A3010008A3010008A3010008B0
:1000A000A3010008A3010008A3010008A3010008A0
:1000B000A30100080D140008A3010008A301000813
:1000C000A3010008A3010008A3010008A301000880
:1000D000A3010008C916000801170008A3010008C1
:1000E000A3010008A3010008A301000800F002F822
:1000F00000F03AF80AA090E8000C82448344AAF188
:100100000107DA4501D100F02FF8AFF2090EBAE885
:100110000F0013F0010F18BFFB1A43F0010318473B
:10012000D8260000F8260000103A24BF78C878C10D
:10013000FAD8520724BF30C830C144BF04680C60ED
:10014000704700000023002400250026103A28BF35
:1001500078C1FBD8520728BF30C148BF0B60704739
:100160001FB51FBD10B510BD00F0A8F81146FFF770
:10017000F7FF01F0E3FB00F0C6F803B4FFF7F2FF6E
:1001800003BC00F0CDF8000009488047094800474B
:10019000FEE7FEE7FEE7FEE7FEE7FEE7FEE7FEE737
:1001A000FEE7FEE704480549054A064B7047000094
:1001B000BD130008ED000008A8000020A8060020DC
:1001C000A8020020A802002053EA020C00F0698077
:1001D0002DE9F04B4FF00006002B1FBFB3FA83F55B
:1001E00003FA05F424FA05F65E4012BF1643B2FA8C
:1001F00082F502FA05F4C5F120051EBF22FA05FCBE
:1002000044EA0C04203556EA044C4FEA144418BF63
:10021000641C4FF000084FF00009904271EB030C92
:1002200039D3002919BFB1FA81F701FA07F6B0FAFC
:1002300080F700FA07F6C7F120071EBF20FA07FC77
:1002400046EA0C062037B6FBF4FCA7EB0507103F87
:1002500007F01F0BCBF120060CFA0BFB2CFA06F66D
:1002600044BFB3460026202FA4BF5E464FF0000BCC
:100270005BEA060C08BF4FF0010B19EB0B09ABFB57
:10028000027C48EB0608C01B06FB02CC0BFB03CC30
:1002900071EB0C01C1E70B46024641464846BDE8FA
:1002A000F08B13B54FF000004FF00001AFF300806A
:1002B000BDE81C407047704770477047754600F0B6
:1002C0002BF8AE4605006946534620F007008546E8
:1002D00018B020B5FFF766FFBDE820404FF00006DC
:1002E0004FF000074FF000084FF0000B21F007011E
:1002F000AC46ACE8C009ACE8C009ACE8C009ACE861
:10030000C0098D46704710B50446AFF30080204603
:10031000BDE81040FFF731BF00487047480000209B
:1003200001491820ABBEFEE726000200704700001E
:1003300038B50121082000F023FF10208DF80300BC
:100340000402ADF8004003208DF80200044D694618
:10035000284600F0BAF92146284600F012FA38BDC6
:10036000000C014030B587B00121880300F008FF80
:100370000121042000F004FF18208DF81B004FF429
:100380000070ADF8180003248DF81A40204D06A91E
:10039000284600F09AF948218DF81B102915ADF870
:1003A00018108DF81A4006A9284600F08EF94FF46F
:1003B000165002900020ADF814000C21ADF8121078
:1003C000ADF81000ADF80E00ADF80C00114C02A90C
:1003D000204601F04BFA012240F22551204601F05F
:1003E0002AFA4FF4A06000F03DFC25218DF804109E
:1003F00001218DF807108DF805108DF8061001A861
:1004000000F0FEFB0121204601F0E2F907B030BD0B
:100410000008014000380140FEE7000008B5012156
:10042000082000F0ADFE04208DF803000003ADF8B5
:10043000000003208DF802006946024800F045F9EB
:1004400008BD0000000C014038B50121082000F073
:1004500097FE4FF40044ADF8004010208DF80300E3
:1004600003208DF80200054D6946284600F02DF95D
:100470002146284600F085F938BD0000000C0140F7
:1004800010B500F0B9F800F05BF8CC2000F0CEF821
:10049000442000F0CBF800F0AFF800F051F8CC2089
:1004A00000F0C4F8BE2000F0C1F800F097F8044650
:1004B00000F094F8000200B220436FF0030400281B
:1004C0000ADAC043401C01F0C5FC224601F056FE8A
:1004D000BDE8104001F084BC01F0BCFC224601F0F4
:1004E0004DFEBDE8104001F07BBC10B5FFF7ACFF3E
:1004F00000F082F8BDE8104000F022B808B54FF4D3
:100500000040ADF8000048208DF80300694602481D
:1005100000F0DBF808BD0000000C014008B54FF406
:100520000040ADF8000010208DF8030003208DF886
:1005300002006946014800F0C8F808BD000C0140FF
:1005400070B50024FFF7DAFF4FF40046124D04E0C7
:10055000641CE4B2012000F0A8F83146284600F0FF
:1005600007F908B1642CF3D3642C01D3012070BDCA
:10057000002404E0641CE4B2012000F096F8314647
:10058000284600F0F5F808B9F02CF3D3F02C01D38D
:10059000012070BD002070BD000C014070B5FFF758
:1005A000BDFF0D4D4FF400442146284600F0E7F80A
:1005B0000A2000F07AF8FFF7A1FF2146284600F054
:1005C000D7F8012805D000242D2000F06EF8204631
:1005D00070BD0124F8E70000000C014070B5002553
:1005E0000024FFF7DBFFA0402843C5B2641CE4B23F
:1005F000082CF6D3284670BD70B5FFF78FFF0A4D63
:100600004FF400442146284600F0B9F840F2EE20AD
:1006100000F04BF82146284600F0B3F8BDE87040E2
:100620000F2000F042B80000000C01402DE9F0411D
:100630000546FFF773FF0024144F4FF4004605F002
:1006400001006D0870B13146384600F098F8082076
:1006500000F02BF83146384600F093F83A2000F0CD
:1006600024F80DE03146384600F089F8462000F0C5
:100670001CF83146384600F084F8022000F015F8E6
:10068000641CE4B2082CDAD3BDE8F081000C014010
:10069000704700B502464FF47A7302E0184600F046
:1006A00004F8521E501CF9D100BD00EBC000C1007F
:1006B0004FF0E02041610021816105210161016964
:1006C000C903FCD50421016170472DE9F0410022E6
:1006D000CC7804F00F03E40601D58C7823430C7822
:1006E0004FF00F0714F0FF0F4FF0010C1CD00568FE
:1006F0000CFA02F40E882640A64211D1960007FAA1
:1007000006F825EA080503FA06F848EA0505CE7852
:10071000282E02D0482E02D002E0446100E004619D
:10072000521C082AE4D305600A88FF2A1ED94568AE
:10073000002202F108060CFA06F40E882640A642B2
:1007400010D1960007FA06F825EA080503FA06F81C
:1007500048EA0505CE78282E00D14461CE78482E8F
:1007600000D10461521C082AE3D34560BDE8F08142
:100770000246002092680A4200D001207047416181
:10078000704701617047002A01D0016170474161E3
:1007900070470000014800787047000014000020F6
:1007A00004484178012901D00020704700214170A0
:1007B000012070471400002038B50121082000F006
:1007C000DFFC10208DF803002020ADF8000003208E
:1007D0008DF802000B4C69462046FFF776FF282172
:1007E0008DF803106114ADF8001069462046FFF73C
:1007F0006CFF002220212046FFF7C5FF0F20FFF7E6
:1008000054FF38BD000C0140FEE72DE9F047824659
:10081000DDE90865894690461F463B2000F05EF8FA
:1008200004463C2000F05AF840EA0420AAF80000F0
:100830003D2000F053F804463E2000F04FF840EA17
:100840000420A9F800003F2000F048F804464020AA
:1008500000F044F840EA0420A8F80000432000F02B
:100860003DF80446442000F039F840EA042038807E
:10087000452000F033F80446462000F02FF840EA07
:1008800004203080472000F029F80446482000F07A
:1008900025F840EA04202880BDE8F087752000F0A4
:1008A0001DB810B500F000F901216B2000F035F8FB
:1008B00000216C2000F031F80921192000F02DF8FA
:1008C00006211A2000F029F818211B2000F025F835
:1008D0001821BDE810401C2000F01FB810B50446D8
:1008E00000F054F9D02000F03DF900F007F920465F
:1008F00000F038F900F002F900F048F9D12000F0DA
:1009000031F900F0FBF800F008F90446012000F08E
:100910001EF900F04AF9204610BD70B505460C4698
:1009200000F034F9D02000F01DF900F0E7F8284677
:1009300000F018F900F0E2F8204600F013F900F09A
:10094000DDF8BDE8704000F030B9FEE770B5044650
:100950000C4D10212846FFF712FF20212846FFF7F3
:1009600010FF40212846FFF70AFF80212846FFF7A5
:1009700008FFA0B200F0E8FBA0B2BDE8704000F0B4
:10098000E9BB00000008014070B504460C4D102181
:100990002846FFF7F6FE20212846FFF7F0FE40210B
:1009A0002846FFF7EEFE80212846FFF7E8FEA0B2BA
:1009B00000F0CAFBA0B2BDE8704000F0CBBB000065
:1009C0000008014008B500F075FB0121042000F08B
:1009D000D7FB10208DF80300F020ADF800000320B5
:1009E0008DF8020069460248FFF76FFE08BD00005F
:1009F0000008014070B504460C4D10212846FFF751
:100A0000BEFE20212846FFF7BAFE40212846FFF708
:100A1000B6FE80212846FFF7B2FEA0B200F094FB9C
:100A2000A0B2BDE8704000F095BB00000008014096
:100A300070B504460C4D10212846FFF7A0FE20217A
:100A40002846FFF79CFE40212846FFF79AFE8021AA
:100A50002846FFF794FEA0B200F076FBA0B2BDE8F6
:100A6000704000F077BB00000008014070B50446FC
:100A70000C4D10212846FFF784FE20212846FFF761
:100A80007EFE40212846FFF77AFE80212846FFF7A8
:100A900076FEA0B200F058FBA0B2BDE8704000F0B6
:100AA00059BB00000008014038B50121082000F0C2
:100AB00067FB4FF44064ADF8004014208DF803004C
:100AC00003208DF80200054D69462846FFF7FDFD1D
:100AD00021462846FFF755FE38BD0000000C0140B6
:100AE00010B54FF400610448FFF742FE04460A20A7
:100AF000FFF7DBFD204610BD000C014010B50120C2
:100B000000F06EF8012000F05DF8FFF7E9FF044601
:100B1000002000F057F8204610BD70B500250120D8
:100B200000F05EF800248026012000F04BF8FFF76B
:100B3000D7FF012802D126FA04F00543002000F077
:100B400041F8641CE4B2082CEED3284670BD10B501
:100B500000F046F8012000F035F8BDE81040002014
:100B600000F030B870B505460024802626FA04F05F
:100B7000284000F035F8012000F024F8002000F0B3
:100B800021F8641CE4B2082CF0D370BD10B501202C
:100B900000F026F8012000F015F8002000F020F801
:100BA000BDE81040002000F00DB810B5002000F0A6
:100BB00017F8012000F006F8BDE81040012000F011
:100BC0000FB8000010B502464FF480610348FFF7EC
:100BD000DAFDBDE810400A20FFF767BD000C0140B8
:100BE00010B502464FF400610348FFF7CCFDBDE8A5
:100BF00010400A20FFF759BD000C0140704700006B
:100C000070B50F23C27801260178002A1ED0144A3D
:100C1000126802F4E062C2F5E062120AC2F1040452
:100C2000D3404578A54082781A402A43120101F149
:100C3000E02181F80024007800F01F018E40400977
:100C4000800000F1E020C0F8006170BD01F01F00DD
:100C500086404809800000F1E020C0F8806170BD46
:100C60000CED00E0024908430249086070470000AB
:100C70000000FA050CED00E070B5002500212846C3
:100C800000F0F6F80024002000F002FA641CE4B240
:100C9000802CF8D36D1CEDB2082DEFD370BD000091
:100CA000F8B50121082000F06BFA14208DF803003C
:100CB00003208DF802004FF48074ADF800400B4E15
:100CC00069463046FFF701FD6500ADF80050694602
:100CD0003046FFF7FAFC012221463046FFF753FD6C
:100CE000012229463046FFF74EFDF8BD000C0140B9
:100CF0002DE9F04707460024134D4FF080094FF4CB
:100D00000078AE1529FA04F23A4041462846FFF72A
:100D10003AFD012231462846FFF735FD00223146D3
:100D20002846FFF730FD641CE4B2082CEAD3012208
:100D300031462846FFF727FD31462846BDE8F047F3
:100D40000022FFF720BD0000000C014070B5012219
:100D50000B4D540221462846FFF715FD01221602CD
:100D600031462846FFF70FFD002221462846FFF7AF
:100D70000AFD31462846BDE870400022FFF703BD5A
:100D8000000C014070B50A4D4FF40074002221465A
:100D90002846FFF7F8FC012211022846FFF7F3FC72
:100DA00021462846BDE870400122FFF7ECBC000058
:100DB000000C014010B500214FF47A720020401C55
:100DC0009042FCD3491C9142F8D3FFF769FFAE2053
:100DD00000F04DF9D52000F04AF9802000F047F9E5
:100DE000A82000F044F93F2000F041F9D32000F0A2
:100DF0003EF9002000F03BF9402000F038F9A12036
:100E000000F035F9C82000F032F9DA2000F02FF9AF
:100E1000122000F02CF9812000F029F9CF2000F0F9
:100E200026F9D92000F023F9F12000F020F9DB2089
:100E300000F01DF9302000F01AF9A42000F017F995
:100E4000A62000F014F98D2000F011F9142000F014
:100E50000EF9AF2000F00BF9BDE81040FFF70CBF12
:100E60000346012000E05843491E4A1CFBD170474D
:100E700010B50C4640F0B00000F0F9F8102040EA40
:100E8000141000F0F4F804F00F00BDE8104000F07A
:100E9000EEB800002DE9F0411546491E461ECF0070
:100EA0007006F9B2000EFFF7E3FF00240E48203D64
:100EB00000EB0515285D00F0EBF8641CE4B2082C8B
:100EC000F8D3012000EB4600F9B2C0B2FFF7D0FF23
:100ED00000242819007A00F0DBF8641CE4B2082C26
:100EE000F7D3BDE8F0810000082200082DE9FF5F7C
:100EF0008946DDF838B014461D46012614F1FF4F2F
:100F000005D22B2249460098FFF7C4FF06E02D22A8
:100F100049460098FFF7BEFF84F0004459460A2076
:100F2000FFF79EFF01F018F8214601F029F800F0C4
:100F3000F7FF80462C464FF00A0A30E0A5EB0B0085
:100F4000A04218D109EB0407B819C1B22E220098AB
:100F5000FFF7A0FF0026291B0A20FFF781FFB8FB3F
:100F6000F0F0B0FBFAF10AFB11023032F9B200984E
:100F7000FFF790FF11E0291B0A20FFF771FFB8FB74
:100F8000F0F0B0FBFAF10AFB110209EB0400304467
:100F9000C1B230320098FFF77DFF641EE4B2002C2E
:100FA000CCD1BDE8FF9F2DE9F04781460F46904622
:100FB0001E4600240A2512E0311B491E0A20FFF7B5
:100FC0004FFFB8FBF0F2B2FBF5F005FB1022381929
:100FD000C1B230324846FFF75DFF641CE4B2B44250
:100FE000EAD3BDE8F0872DE9F047824689461746E7
:100FF0009846002F05DB2B2249465046FFF74AFF53
:1010000005E02D2249465046FFF744FF7F42002469
:101010000A2515E0A8EB0401491E0A20FFF720FF6E
:10102000B7FBF0F6B6FBF5F005FB106209EB040028
:10103000401CC1B230325046FFF72CFF641CE4B2B2
:101040004445E7D3BDE8F0872DE9F04107460D465A
:101050001646002406E02819C1B23846FFF71AFFE9
:10106000641CE4B2325D002AF5D1BDE8F08110B510
:101070000446FFF76BFE7820FFF73AFE0020FFF7EB
:1010800037FE2046FFF734FEBDE81040FFF77ABE7A
:1010900010B50446FFF75AFE7820FFF729FE4020DE
:1010A000FFF726FE2046FFF723FEBDE81040FFF7BE
:1010B00069BE000030B589B00121082000F060F859
:1010C0000121042000F04EF818208DF82300C020E4
:1010D000ADF8200003208DF8220008A91848FFF77A
:1010E000F4FA184D284600F0D3F90024ADF81A4060
:1010F000ADF816406321ADF8181040F2CF20ADF8DE
:1011000014008DF81C4005A9284600F053FA602011
:10111000ADF80400ADF80C400120ADF80600ADF8C4
:101120000A4001A9284600F0B9F901A9284600F0B3
:10113000F9F90121284600F089F909B030BD000015
:10114000000C0140000800400146014800F02EBAA2
:10115000000800400146014800F02ABA000800409B
:1011600070470000054A002903D0D1690143D161CD
:101170007047D1698143D16170470000001002407F
:10118000054A002903D09169014391617047916933
:1011900081439161704700000010024010B5264A5B
:1011A000516801F00C01254B002927D0042927D0D4
:1011B000082927D00360516801F0F0010909204B8C
:1011C0005C5C0168E1404160546804F4E064240A16
:1011D0001C5D21FA04F48460546804F46054E40A49
:1011E0001B5DD940C160526802F44042920B144B1F
:1011F0001B1F9A5CB1FBF2F1016110BD0360DAE7DD
:101200000360D8E7516801F47011536803F4803328
:10121000022404EB914133B153689B0307D5094B7A
:1012200059430160C7E7074B59430160C3E7034BCC
:1012300059430160BFE700000010024000127A002D
:101240000400002000093D007047000010B5064C66
:101250000146204600F06CFB8021204600F0C4FAD5
:101260000028F9D010BD00000038014010B586B04C
:1012700001214804FFF784FF01210420FFF780FFCC
:1012800048208DF817000820ADF8140003208DF8D1
:10129000160005A91948FFF718FA4FF4E13001903C
:1012A0000020ADF810000421ADF80E10ADF80C00D0
:1012B000ADF80A00ADF80800114C01A9204600F075
:1012C000D5FA012240F22551204600F0B4FA4FF43D
:1012D000A060FFF7C7FC26218DF8001001218DF8D2
:1012E00003108DF801108DF802106846FFF788FC96
:1012F0000121204600F06CFA06B010BD0008014044
:1013000000440040AFF300800CB50022019200922F
:101310002748016841F4803101604FF4A0630168FF
:1013200001F4003100910199491C0191009911B912
:1013300001999942F3D10168890302D501210091F5
:1013400000E000920099012930D11A490A6842F060
:1013500010020A600A6822F003020A600A6842F07A
:1013600002020A604168416041684160416841F49D
:1013700080614160416821F47C114160416841F421
:10138000E8114160016841F08071016001688901E4
:10139000FCD5416821F003014160416841F0020140
:1013A00041604168C1F381010229FAD10CBD0000FE
:1013B00000100240002002407047000010B50F48A6
:1013C000016841F00101016041680D4A114041602E
:1013D00001680C4A11400160016821F4802101601C
:1013E000416821F4FE0141604FF41F018160FFF765
:1013F00089FF05494FF00060086010BD00100240F1
:101400000000FFF8FFFFF6FE08ED00E010B50A4C03
:101410000121204600F026F801280CD10749D1E926
:101420000023521C43F100030CC12046BDE81040CC
:10143000012100F008B810BD000400401800002091
:10144000C94301827047C94301827047002904D013
:10145000018841F0010101807047018821F00101FC
:101460000180704702460020138A0B4092890A408F
:10147000002B02D0002A00D001207047002A03D0A0
:1014800082890A438281704782898A4382817047B8
:10149000018921F0070101817047000030B5028CFD
:1014A00022F001020284028C8388048B24F07004F1
:1014B00024F003050C882C4322F002020D89154309
:1014C0004A882A43124DA8420BD0124DA84208D098
:1014D000114DA84205D0114DA84202D0104DA8428E
:1014E0000FD122F008054A892A4322F004058A8890
:1014F0002A4323F4807323F400738D891D43CB8921
:101500002B4383800483C9888186028430BD000018
:10151000002C0140003401400040014000440140E3
:101520000048014070B5028C22F010020284028C47
:101530008388048B24F4E04424F440760D884FF62D
:10154000FF7404EA0525354322F020020E8904EADF
:10155000061616434A8804EA02123243114EB0427C
:1015600002D0114EB04217D122F080024E8904EA17
:101570000616164326F040068A8804EA0212324311
:1015800023F4806323F400638E8904EA86061E43F5
:10159000CB8904EA8303334383800583C9880187A9
:1015A000028470BD002C01400034014081867047E8
:1015B0000187704730B502881B4C1C4DA0420DD0EE
:1015C000A8420BD0B0F1804F08D0194B984205D0FB
:1015D000184B984202D0184B984203D122F0700366
:1015E0004A881A43154B984206D0154B984203D0AF
:1015F00022F44073CA881A4302808A8882850A8846
:101600000285A0420AD0A84208D00E4A904205D0D6
:101610000D4A904202D00D4A904201D1097A0186CA
:101620000121818230BD0000002C014000340140C6
:101630000004004000080040000C00400010004082
:1016400000140040004001400044014000480140B7
:101650001FB501210220FFF785FD1A4C2046FFF738
:1016600017FF0021ADF80A10ADF806100922ADF8F9
:1016700008204720ADF804008DF80C1001A9204681
:10168000FFF798FF01212046FFF7DAFE01221146FD
:101690002046FFF7F3FE4FF4A060FFF7E3FA1D20AA
:1016A0008DF8000001208DF8030002218DF8011053
:1016B0008DF802106846FFF7A3FA01212046FFF7D4
:1016C000C5FE1FBD0004004070B50B4D40F225540F
:1016D0002146284600F08FF801280CD1284600F05A
:1016E00023F9064A10700120507021462846BDE8B3
:1016F000704000F065B870BD003801401400002053
:1017000070B52C4C40F225552946204600F073F860
:10171000002818D12946204600F052F8204600F053
:1017200003F9C0B2244C254A63780BB92C2803D0A6
:101730000221012B08D009E00121617021784B1CA6
:10174000237022F8110070BD12280CD00021022B4A
:1017500010D061702170002022F81010401CC0B21F
:101760000628F9D370BD617021784B1C237022F8D4
:10177000110070BD25786B1CDBB2237022F81500B8
:10178000062B01D15B280BD0062BF2D9617021709A
:10179000002022F81010401CC0B20628F9D370BDFA
:1017A0001079A0709079E070107A207121706170CA
:1017B00070BD000000440040280000203C000020D4
:1017C00040F66A120A0A01219140C943018070471C
:1017D000002904D0818941F40051818170478189B9
:1017E00021F40051818170470246002012880A428C
:1017F00000D00120704770B5002440F66A12C1F392
:10180000421301F01F05012606FA05F2012B0CD048
:10181000022B0DD0838A1340090A8E400088304085
:101820000BB100B10124204670BD83891340F3E75A
:10183000038A1340F0E710B540F66A13C1F3421370
:1018400001F01F040121A140012B07D0022B07D07A
:1018500014303AB102680A43026010BD0C30F8E758
:101860001030F6E702688A43026010BD30B585B0DB
:1018700004460D46208A4CF6FF710840E988014372
:101880002182A0894EF6F3110840A9882A891143C4
:101890006A8902431143A181A08A4FF6FF410840A3
:1018A000A9890143A1826846FFF778FC1D4884425C
:1018B00001D1039800E00298A189090408D500EB42
:1018C000C00101EB001029684900B0FBF1F007E00E
:1018D00000EBC00101EB001029688900B0FBF1F0BA
:1018E0006422B0FBF2F109010B096FF018056B439C
:1018F00000EB8300A3891D044FF0320307D503EBEF
:10190000C000B0FBF2F000F00700084306E003EB74
:101910000010B0FBF2F000F00F000843208105B08A
:1019200030BD0000003801408088C0F308007047D7
:10193000C1F3080181807047FEE700001CB5FFF786
:1019400039FAFFF73FF8FEF70DFDFEF7AAFFFEF7A5
:1019500033FFFFF77DFEFEF7EBFCFEF75FFDFEF7C2
:10196000C4FDFFF783FCDFF898934FF480552946B8
:101970004846FEF704FF4FF47A784046FEF789FEAA
:1019800029464846FEF7FDFE4FF4FA60FEF781FE59
:1019900029464846FEF7F3FE6420FEF77AFE294604
:1019A0004846FEF7EEFE6420FEF773FE29464846E1
:1019B000FEF7E5FE6420FEF76CFE29464846FEF77A
:1019C000E0FE4FF4FA70FEF764FE0120FFF73EFCE4
:1019D000FEF764FFCB4C6070FFF738FCFEF750FD5C
:1019E00002460120032301460090FFF77FFA5422AC
:1019F00006210120FFF74EFA00F0AAF990FBF8F655
:101A000090FBF8F108FB1104F7173046394600F057
:101A10008BF9C3B2324609210120FFF7C4FA3046E0
:101A2000394600F081F90930C1B24FF02E024FF073
:101A30000100FFF72FFA642C32DA3046394600F005
:101A400073F90A30C1B24FF030024FF00100FFF7D6
:101A500021FA4FEAE47A2046514600F065F900F099
:101A6000FF0B3046394600F05FF90B30C1B25B46E0
:101A700022464FF00100FFF796FA3046394600F053
:101A800053F906462046514600F04EF930180B3007
:101A9000C1B24FF06D024FF00100FFF7FBF925E0F6
:101AA0004FEAE47A2046514600F03EF900F0FF0B81
:101AB0003046394600F038F90A30C1B25B4622465A
:101AC0004FF00100FFF76FFA3046394600F02CF96D
:101AD00006462046514600F027F930180A30C1B2B8
:101AE0004FF06D024FF00100FFF7D4F9642C0ADAD1
:101AF00029464846FEF743FE6420FEF7CAFD294604
:101B00004846FEF73EFE7F480C30811ECDE90010AE
:101B1000031F821F891F0A38FEF777FE794C0523C1
:101B20000121B4F902200220FFF75DFA0523B4F980
:101B3000042001210320FFF756FA0523B4F90620FB
:101B400001210420FFF74FFA0523B4F908200821EA
:101B50000220FFF748FA0523B4F90A2008210320E0
:101B6000FFF741FA0523B4F90C2008210420FFF700
:101B70003AFA4FF480462EE029464846FEF7FFFD2C
:101B80006420FEF786FD0020FEF734FF5EA21021E0
:101B90000120FFF759FA4046FEF77BFD29464846EB
:101BA000FEF7EDFD6420FEF774FD29464846FEF77A
:101BB000E8FD4820FEF7CAFE54A210210120FFF7DD
:101BC00043FA4FF4FA60FEF764FD0020FEF712FFBF
:101BD0006420FEF75EFD31464846FEF7C9FD002849
:101BE000CAD04B4802230F2102781846FFF7DBF9D1
:101BF000484802230F2102780320FFF7D4F9464812
:101C000002230F2102780420FFF7CDF9FEF7C8FD6B
:101C100001287FF4E3AEFEF7BDFD2070FFF716FB51
:101C2000207831281BD032282DD033283FD03428BB
:101C300051D03528EDD10020FEF7DCFE32A2102174
:101C40000120FFF701FA29464846FEF798FD642077
:101C5000FEF71FFD29464846FEF793FDBEE64820E5
:101C6000FEF792FE2DA210210120FFF7EDF9294683
:101C70004846FEF784FD6420FEF70BFD29464846E2
:101C8000FEF77FFDAAE64820FEF760FE1FA21021A6
:101C90000120FFF7D9F929464846FEF770FD642078
:101CA000FEF7F7FC29464846FEF76BFD96E6242032
:101CB000FEF7DCFE1AA210210120FFF7C5F9294624
:101CC0004846FEF75CFD6420FEF7E3FC29464846E3
:101CD000FEF757FD82E62420FEF7AAFE11A210218E
:101CE0000120FFF7B1F929464846FEF748FD642078
:101CF000FEF7CFFC29464846FEF743FD6EE600009E
:101D0000000C01402E0000205300000042000000A3
:101D10002A0000202B0000202C000020460000009C
:101D2000520000004C00000070B50124002506E0C0
:101D30000A220023FEF748FA641C45F10005002240
:101D4000D0F109038A41F3D32046294670BD000033
:101D50002DE9F0410026204D012220212846FEF7E2
:101D600012FD0F20FEF7A1FC002220212846FEF7DD
:101D70000AFD6F1439462846FEF7FAFC0028F9D010
:101D8000164C00212160616039462846FEF7F0FCC0
:101D90000128F9D0D4E90001C4E9020104460D4646
:101DA00064220023FEF710FA263871F100000FD2EA
:101DB0004FF4AD70A4FB002305FB0030002104FBB1
:101DC000010040084FEA32004FF06401B0FBF1F629
:101DD00030B2BDE8F0810000000C01401800002086
:101DE00021F00042A2F16052B2F5801F01F00043E1
:101DF00028BFD2F17F6C0BD95FEA001C43EAC20214
:101E000042EB507018BF704728BF20F001007047A8
:101E1000B2F5801FBCBF184670474FEA410C1CF555
:101E2000001F02D2084600F072B970B500F029F820
:101E300000000089FFF7F6BF4FF00040A0F58000DA
:101E40007047000002494FF0000000F065B900BF84
:101E50000000F87F10F0004248BF4042B0FA80F323
:101E600010FA03F10AD0C3F11D0303F580634FEAB2
:101E7000415002EB035202EBD12170474FF00000BA
:101E800070470EF1020E2EF0030E5EF8046B364220
:101E900005D4012A43EB030515F5001F12D80128CC
:101EA00041EB010C1CF5001F0CD80ED14FEAD17C80
:101EB00015F5001F0CEB4C0C0CF1020C08BF4CEBA1
:101EC000D37C04E04FF0080C01E04FEAD37C0CEB2C
:101ED0004C0526FA05F606F00706B6F1040C06D204
:101EE0000EEB860CBDE870404CF0010C6047DFE85B
:101EF0000CF0090B02024FF000414FF00000A1F579
:101F0000002170BD19461046012851EB010418BF8D
:101F1000D4F5001484BF002001F0004170BD000022
:101F200041000B0ED3F19E0208D950F400034FEA92
:101F3000032323FA02F048BF4042704710B500F077
:101F4000A0F800BF49922480002070476FF0004243
:101F500082EA200070470000B0FA80F310FA03F222
:101F6000C3F19D030AD0D90501EB1220530638BFF7
:101F7000704700F1010008BF20F001007047000029
:101F80004FF47F0C1CEAD0121EBF1CEAD11392EA58
:101F90000C0F93EA0C0F00F0478090EA010F48BF46
:101FA00042F480724FF0004C4CEA00204CEA0121D0
:101FB00002EB0302A0FB0113A2F50002002918BFE7
:101FC00043F001035B0028BF4FEA330342EB224298
:101FD0005FEA132C4CEBC2502EBFBCEB436FB2F543
:101FE0007C0F70474FEA036CBCF1004F08BF20F034
:101FF0000100B2F57C0F38BF70470BD582F0FF02AD
:1020000012F5803FC8BF704700F1C040D8BF00F054
:102010000040704700F5000C5FEA4C0C48BF704769
:10202000B0F1C04000F073B890EA010F0CEAD11390
:1020300048BF42F48072624538BF634504D280EAEB
:10204000010000F00040704710B500F01AF800BF22
:102050008900013E00F007B800F009B85FEA410CC2
:102060005FEA1C6C08D080EA010000F050B85FEA1B
:10207000400C5FEA1C6CF6D14FF00040A0F58000E8
:1020800070470EF1020E2EF0030E5EF8044B244250
:1020900004D44FEA4102B2F17F4F11D84FEA400316
:1020A000B3F17F4F0CD80ED14FEAD07CB2F17F4F05
:1020B0000CEB4C0C0CF1020C08BF4CEBD17C04E097
:1020C0004FF0080C01E04FEAD17C0CEB4C0324FAF2
:1020D00003F404F00704B4F1040C06D20EEB840CF4
:1020E000BDE810404CF0010C6047DFE80CF0070839
:1020F00002024FF00040A0F5800010BD08464200EB
:1021000018BFD2F1807288BF00F0004010BDFF21DF
:1021100041EAD050C00570470CF00F03092B08BFEF
:10212000082000F059800A2B0BD0082B18BF7047ED
:1021300008BF1CF0400F0AD04FF000004FF0000124
:1021400070471CF0400F18BF4FF0004070471CF064
:10215000100F08D020F0704300F07F4242EAD30114
:102160004FEA4370704700F0604021F07F4242EA3E
:10217000000201F07F4040EA727070474FF0FF0CA0
:102180004CF4E06C1CEA11531CBF9CEA030C944510
:10219000C2BFDA4201EB02517047002B0DD0BCF1F7
:1021A000000F0FD0002A01F00041A4BF41F0E04130
:1021B00041F07F614FF00000704701F000414FF0A7
:1021C0000000704750EA01334FF09B0C18BF4CF0F1
:1021D000806C7FF437AE70471CF4801F11D01CF464
:1021E000E02F03D06FEACC31490070474FF04050E8
:1021F000EFF3008222F0704242EA000282F300888C
:1022000070474FF000007047000000000000000021
:102210000000000000000000000000F800000000C6
:10222000000000333000000000100C06100C060007
:10223000000000000000000040C07840C07840006E
:10224000043F04043F040400007088FC08300000D0
:10225000001820FF211E0000F008F000E018000028
:1022600000211C031E211E0000F0088870000000E1
:102270001E2123241927211010160E000000000033
:102280000000000000000000000000E01804020050
:10229000000000071820400000020418E0000000C1
:1022A0000040201807000000404080F080404000BF
:1022B0000202010F01020200000000F00000000015
:1022C0000101011F010101000000000000000000E9
:1022D00080B070000000000000000000000000005E
:1022E00000010101010101010000000000000000E7
:1022F0000030300000000000000000008060180482
:10230000006018060100000000E010080810E0005E
:10231000000F102020100F00001010F80000000027
:102320000020203F2020000000700808088870006E
:1023300000302824222130000030088888483000EE
:102340000018202020110E000000C02010F800000E
:1023500000070424243F240000F8088888080800A7
:102360000019212020110E0000E0108888180000BC
:10237000000F112020110E0000380808C83808008E
:102380000000003F0000000000708808088870000E
:10239000001C222121221C0000E010080810E0008F
:1023A0000000312222110F00000000C0C000000018
:1023B000000000303000000000000080000000003D
:1023C0000000806000000000000080402010080035
:1023D00000010204081020004040404040404000FE
:1023E00004040404040404000008102040800000D9
:1023F0000020100804020100007048080808F000DE
:102400000000003036010000C030C828E810E000AD
:102410000718272423140B000000C038E000000038
:10242000203C23020227382008F8888888700000A2
:10243000203F202020110E00C03008080808380076
:10244000071820202010080008F808080810E000ED
:10245000203F202020100F0008F88888E80810008E
:10246000203F20202320180008F88888E808100062
:10247000203F200003000000C0300808083800009A
:1024800007182020221E020008F808000008F8089B
:10249000203F210101213F20000808F80808000022
:1024A0000020203F2020000000000808F808080055
:1024B000C08080807F00000008F888C028180800CD
:1024C000203F20012638200008F808000000000006
:1024D000203F20202020300008F8F800F8F80800FD
:1024E000203F003F003F200008F830C00008F808F7
:1024F000203F200007183F00E01008080810E00007
:102500000F10202020100F0008F808080808F0001D
:10251000203F210101010000E01008080810E00040
:102520000F18242438504F0008F8888888887000D5
:10253000203F2000030C3020007088080808380075
:102540000038202121221C00180808F8080818006B
:102550000000203F2000000008F808000008F808EC
:10256000001F202020201F000878880000C838089D
:10257000000007380E010000F80800F80008F80015
:10258000033C0700073C03000818688080681808AF
:1025900020302C03032C30200838C800C83808002D
:1025A0000000203F2000000010080808C83808007C
:1025B0002038262120201800000000FE0202020020
:1025C0000000007F40404000000C30C000000000D0
:1025D000000000010638C00000020202FE000000F8
:1025E000004040407F00000000000402020204009E
:1025F00000000000000000000000000000000000DB
:1026000080808080808080800002020400000000C2
:1026100000000000000000000000808080800000BA
:102620000019242222223F2008F8008080000000A8
:10263000003F112020110E0000000080808000006B
:10264000000E112020201100000000808088F8007A
:10265000000E112020103F200000808080800000AC
:10266000001F222222221300008080F08888881810
:102670000020203F2020000000008080808080001B
:10268000006B94949493600008F8008080800000B0
:10269000203F210000203F2000809898000000008B
:1026A0000020203F202000000000008098980000BB
:1026B00000C08080807F000008F8000080808000DB
:1026C000203F24022D302000000808F80000000000
:1026D0000020203F202000008080808080808000BB
:1026E000203F20003F20003F80800080808000004D
:1026F000203F210000203F200000808080800000DB
:10270000001F202020201F0080800080800000000B
:1027100080FFA12020110E0000000080808080003A
:10272000000E112020A0FF8080808000808080002B
:1027300020203F2120000100000080808080800058
:102740000033242424241900008080E080800000CD
:102750000000001F2020000080800000008080001A
:10276000001F202020103F2080808000008080807B
:1027700000010E300806010080800080008080800B
:102780000F300C030C300F00008080008080800030
:102790000020312E0E31200080808000008080805B
:1027A00080818E701806010000808080808080000B
:1027B0000021302C2221300000000000807C020229
:1027C00000000000003F404000000000FF0000004B
:1027D00000000000FF0000000002027C80000000FA
:1027E0000040403F00000000000601010202040416
:1027F0000000000000000000182800080000002071
:102800003C00000028010008542800083C0000207B
:102810006C060000440100080204060800000000E5
:102820000102030401020304060708090000000076
:102830000000000000000000000000000000000098
:102840000000000000000000000000000000000088
:042850000000000084
:04000005080000ED02
:00000001FF
