:020000040800F2
:10000000980600208901000885090008910500086C
:10001000D306000819040008D514000800000000E9
:100020000000000000000000000000005D0F00085C
:100030001B04000800000000750E000835100008C1
:10004000A3010008A3010008A3010008A301000800
:10005000A3010008A3010008A3010008A3010008F0
:10006000A3010008A3010008A3010008A3010008E0
:10007000A3010008A3010008A3010008A3010008D0
:10008000A3010008A3010008A3010008A3010008C0
:10009000A3010008A3010008A3010008A3010008B0
:1000A000A3010008A3010008A3010008A3010008A0
:1000B000A301000889100008A3010008A30100089B
:1000C000A3010008A3010008A3010008A301000880
:1000D000A301000825130008A3010008A3010008DC
:1000E000A3010008A3010008A301000800F002F822
:1000F00000F03AF80AA090E8000C82448344AAF188
:100100000107DA4501D100F02FF8AFF2090EBAE885
:100110000F0013F0010F18BFFB1A43F0010318473B
:100120008C1D0000AC1D0000103A24BF78C878C1B7
:10013000FAD8520724BF30C830C144BF04680C60ED
:10014000704700000023002400250026103A28BF35
:1001500078C1FBD8520728BF30C148BF0B60704739
:100160001FB51FBD10B510BD00F0A8F81146FFF770
:10017000F7FF01F0B1F900F0C6F803B4FFF7F2FFA2
:1001800003BC00F0CDF8000009488047094800474B
:10019000FEE7FEE7FEE7FEE7FEE7FEE7FEE7FEE737
:1001A000FEE7FEE704480549054A064B7047000094
:1001B00039100008ED000008980000209806002083
:1001C000980200209802002053EA020C00F0698097
:1001D0002DE9F04B4FF00006002B1FBFB3FA83F55B
:1001E00003FA05F424FA05F65E4012BF1643B2FA8C
:1001F00082F502FA05F4C5F120051EBF22FA05FCBE
:1002000044EA0C04203556EA044C4FEA144418BF63
:10021000641C4FF000084FF00009904271EB030C92
:1002200039D3002919BFB1FA81F701FA07F6B0FAFC
:1002300080F700FA07F6C7F120071EBF20FA07FC77
:1002400046EA0C062037B6FBF4FCA7EB0507103F87
:1002500007F01F0BCBF120060CFA0BFB2CFA06F66D
:1002600044BFB3460026202FA4BF5E464FF0000BCC
:100270005BEA060C08BF4FF0010B19EB0B09ABFB57
:10028000027C48EB0608C01B06FB02CC0BFB03CC30
:1002900071EB0C01C1E70B46024641464846BDE8FA
:1002A000F08B13B54FF000004FF00001AFF300806A
:1002B000BDE81C407047704770477047754600F0B6
:1002C0002BF8AE4605006946534620F007008546E8
:1002D00018B020B5FFF766FFBDE820404FF00006DC
:1002E0004FF000074FF000084FF0000B21F007011E
:1002F000AC46ACE8C009ACE8C009ACE8C009ACE861
:10030000C0098D46704710B50446AFF30080204603
:10031000BDE81040FFF731BF0048704738000020AB
:1003200001491820ABBEFEE726000200704700001E
:1003300038B50121082000F0ADFD10208DF8030034
:100340000402ADF8004003208DF80200044D694618
:10035000284600F07FF82146284600F0D7F838BD3F
:10036000000C014030B587B00121880300F092FDF8
:100370000121042000F08EFD18208DF81B004FF4A1
:100380000070ADF8180003248DF81A40204D06A91E
:10039000284600F05FF848218DF81B102915ADF8AC
:1003A00018108DF81A4006A9284600F053F84FF4AB
:1003B000165002900020ADF814000C21ADF8121078
:1003C000ADF81000ADF80E00ADF80C00114C02A90C
:1003D000204601F019F8012240F22551204600F094
:1003E000F8FF4FF4A06000F001FB25218DF8041008
:1003F00001218DF807108DF805108DF8061001A861
:1004000000F0C2FA0121204600F0B0FF07B030BD75
:100410000008014000380140FEE7704700B5024681
:100420004FF47A7302E0184600F004F8521E501C94
:10043000F9D100BD00EBC000C1004FF0E0204161E8
:1004400000218161052101610169C903FCD50421F5
:10045000016170472DE9F0410022CC7804F00F03D0
:10046000E40601D58C7823430C784FF00F0714F085
:10047000FF0F4FF0010C1CD005680CFA02F40E8837
:100480002640A64211D1960007FA06F825EA08058B
:1004900003FA06F848EA0505CE78282E02D0482E41
:1004A00002D002E0446100E00461521C082AE4D357
:1004B00005600A88FF2A1ED94568002202F1080655
:1004C0000CFA06F40E882640A64210D1960007FAD0
:1004D00006F825EA080503FA06F848EA0505CE7885
:1004E000282E00D14461CE78482E00D10461521CE0
:1004F000082AE3D34560BDE8F081024600209268F7
:100500000A4200D001207047416170470161704785
:10051000002A01D0016170474161704701480078AD
:10052000704700001400002004484178012901D0E0
:100530000020704700214170012070471400002006
:1005400038B50121082000F0A5FC10208DF803002B
:100550002020ADF8000003208DF802000B4C694606
:100560002046FFF777FF28218DF803106114ADF8BE
:10057000001069462046FFF76DFF0022202120462B
:10058000FFF7C6FF0F20FFF755FF38BD000C0140F5
:10059000FEE72DE9F0478246DDE908658946904689
:1005A0001F463B2000F05EF804463C2000F05AF85D
:1005B00040EA0420AAF800003D2000F053F8044669
:1005C0003E2000F04FF840EA0420A9F800003F2048
:1005D00000F048F80446402000F044F840EA0420C7
:1005E000A8F80000432000F03DF80446442000F045
:1005F00039F840EA04203880452000F033F80446FA
:10060000462000F02FF840EA04203080472000F018
:1006100029F80446482000F025F840EA0420288004
:10062000BDE8F087752000F01DB810B500F000F9A6
:1006300001216B2000F035F800216C2000F031F82A
:100640000921192000F02DF806211A2000F029F8C0
:1006500018211B2000F025F81821BDE810401C20AF
:1006600000F01FB810B5044600F054F9D02000F097
:100670003DF900F007F9204600F038F900F002F9E2
:1006800000F048F9D12000F031F900F0FBF800F05B
:1006900008F90446012000F01EF900F04AF920464E
:1006A00010BD70B505460C4600F034F9D02000F0BE
:1006B0001DF900F0E7F8284600F018F900F0E2F81C
:1006C000204600F013F900F0DDF8BDE8704000F0BE
:1006D00030B9FEE770B504460C4D10212846FFF7EF
:1006E00013FF20212846FFF711FF40212846FFF77E
:1006F0000BFF80212846FFF709FFA0B200F0B0FBF6
:10070000A0B2BDE8704000F0B0BB0000000801409E
:1007100070B504460C4D10212846FFF7F7FE202146
:100720002846FFF7F1FE40212846FFF7EFFE802123
:100730002846FFF7E9FEA0B200F092FBA0B2BDE8A8
:10074000704000F092BB00000008014008B500F0C6
:100750003FFB0121042000F09DFB10208DF80300D9
:10076000F020ADF8000003208DF802006946024831
:10077000FFF770FE08BD00000008014070B5044698
:100780000C4D10212846FFF7BFFE20212846FFF719
:10079000BBFE40212846FFF7B7FE80212846FFF721
:1007A000B3FEA0B200F05CFBA0B2BDE8704000F068
:1007B0005CBB00000008014070B504460C4D1021E0
:1007C0002846FFF7A1FE20212846FFF79DFE402185
:1007D0002846FFF79BFE80212846FFF795FEA0B232
:1007E00000F03EFBA0B2BDE8704000F03EBB000050
:1007F0000008014070B504460C4D10212846FFF753
:1008000085FE20212846FFF77FFE40212846FFF77E
:100810007BFE80212846FFF777FEA0B200F020FB88
:10082000A0B2BDE8704000F020BB0000000801400D
:1008300038B50121082000F02DFB4FF44064ADF8DD
:10084000004014208DF8030003208DF80200054DB0
:1008500069462846FFF7FEFD21462846FFF756FE6B
:1008600038BD0000000C014010B54FF40061044891
:10087000FFF743FE04460A20FFF7DCFD204610BDCB
:10088000000C014010B5012000F06EF8012000F0CE
:100890005DF8FFF7E9FF0446002000F057F8204616
:1008A00010BD70B50025012000F05EF80024802600
:1008B000012000F04BF8FFF7D7FF012802D126FAFC
:1008C00004F00543002000F041F8641CE4B2082C59
:1008D000EED3284670BD10B500F046F8012000F0B8
:1008E00035F8BDE81040002000F030B870B505467E
:1008F0000024802626FA04F0284000F035F8012074
:1009000000F024F8002000F021F8641CE4B2082C68
:10091000F0D370BD10B5012000F026F8012000F0E2
:1009200015F8002000F020F8BDE81040002000F08D
:100930000DB810B5002000F017F8012000F006F8FF
:10094000BDE81040012000F00FB8000010B50246CD
:100950004FF480610348FFF7DBFDBDE810400A203B
:10096000FFF768BD000C014010B502464FF400616E
:100970000348FFF7CDFDBDE810400A20FFF75ABD40
:10098000000C01407047000070B50F23C2780126AB
:100990000178002A1ED0144A126802F4E062C2F5FF
:1009A000E062120AC2F10404D3404578A54082787F
:1009B0001A402A43120101F1E02181F80024007855
:1009C00000F01F018E404009800000F1E020C0F8D7
:1009D000006170BD01F01F0086404809800000F1F1
:1009E000E020C0F8806170BD0CED00E002490843D2
:1009F00002490860704700000000FA050CED00E0B5
:100A000070B500250021284600F0F6F800240020EB
:100A100000F0CDF9641CE4B2802CF8D36D1CEDB26B
:100A2000082DEFD370BD0000F8B50121082000F0BB
:100A300031FA14208DF8030003208DF802004FF4E2
:100A40008074ADF800400B4E69463046FFF702FD5A
:100A50006500ADF8005069463046FFF7FBFC012207
:100A600021463046FFF754FD012229463046FFF764
:100A70004FFDF8BD000C01402DE9F047074600246A
:100A8000134D4FF080094FF40078AE1529FA04F2A7
:100A90003A4041462846FFF73BFD012231462846B1
:100AA000FFF736FD002231462846FFF731FD641C72
:100AB000E4B2082CEAD3012231462846FFF728FD8C
:100AC00031462846BDE8F0470022FFF721BD00006F
:100AD000000C014070B501220B4D540221462846FE
:100AE000FFF716FD0122160231462846FFF710FDDA
:100AF000002221462846FFF70BFD31462846BDE877
:100B000070400022FFF704BD000C014070B50A4D93
:100B10004FF40074002221462846FFF7F9FC012219
:100B200011022846FFF7F4FC21462846BDE8704034
:100B30000122FFF7EDBC0000000C014010B50021C0
:100B40004FF47A720020401C9042FCD3491C914221
:100B5000F8D3FFF769FFAE2000F018F9D52000F0B8
:100B600015F9802000F012F9A82000F00FF93F20BD
:100B700000F00CF9D32000F009F9002000F006F98C
:100B8000402000F003F9A12000F000F9C82000F097
:100B9000FDF8DA2000F0FAF8122000F0F7F88120D2
:100BA00000F0F4F8CF2000F0F1F8D92000F0EEF8D2
:100BB000F12000F0EBF8DB2000F0E8F8302000F046
:100BC000E5F8A42000F0E2F8A62000F0DFF88D2080
:100BD00000F0DCF8142000F0D9F8AF2000F0D6F8CF
:100BE000BDE81040FFF70CBF0346012000E058436A
:100BF000491E4A1CFBD1704710B50C4640F0B000AE
:100C000000F0C4F8102040EA141000F0BFF804F01F
:100C10000F00BDE8104000F0B9B800002DE9F04128
:100C20001546491E461ECF007006F9B2000EFFF7AA
:100C3000E3FF00240E48203D00EB0515285D00F081
:100C4000B6F8641CE4B2082CF8D3012000EB46008F
:100C5000F9B2C0B2FFF7D0FF00242819007A00F0E3
:100C6000A6F8641CE4B2082CF7D3BDE8F0810000BC
:100C7000BC1800082DE9F04781460E4690461F46F5
:100C800000241BE0391B491E1020FFF7ADFFB8FB05
:100C9000F0F000F00F050A2D07D230193035C1B23F
:100CA000EAB24846FFF7BAFF06E030193735C1B25D
:100CB000EAB24846FFF7B2FF641CE4B2BC42E1D39B
:100CC000BDE8F0872DE9F04781460F4690461E4665
:100CD00000240A2512E0311B491E0A20FFF784FF79
:100CE000B8FBF0F2B2FBF5F005FB10223819C1B2E7
:100CF00030324846FFF792FF641CE4B2B442EAD3B4
:100D0000BDE8F0872DE9F0478246894617469846A8
:100D1000002F05DB2B2249465046FFF77FFF05E0F9
:100D20002D2249465046FFF779FF7F4200240A25CD
:100D300015E0A8EB0401491E0A20FFF755FFB7FB99
:100D4000F0F6B6FBF5F005FB106209EB0400401C61
:100D5000C1B230325046FFF761FF641CE4B2444533
:100D6000E7D3BDE8F0872DE9F04107460D4616466A
:100D7000002406E02819C1B23846FFF74FFF641C73
:100D8000E4B2325D002AF5D1BDE8F08110B5044629
:100D9000FFF7A0FE7820FFF76FFE0020FFF76CFE44
:100DA0002046FFF769FEBDE81040FFF7AFBE10B563
:100DB0000446FFF78FFE7820FFF75EFE4020FFF726
:100DC0005BFE2046FFF758FEBDE81040FFF79EBED1
:100DD00030B589B00121042000F05CF801210846FB
:100DE00000F04AF818208DF823000C20ADF8200000
:100DF00003208DF8220008A91848FFF72BFB4FF0BD
:100E00008045284600F082F90024ADF81A40ADF87C
:100E100016406321ADF8181040F2CF20ADF8140051
:100E20008DF81C4005A9284600F0F2F96020ADF8C5
:100E30000400ADF80C400120ADF80600ADF80A4002
:100E400001A9284600F068F901A9284600F0A6F992
:100E50000121284600F038F909B030BD00080140F2
:100E600001464FF0804000F0CDB901464FF0804080
:100E700000F0CAB970470000054A002903D0D169C3
:100E80000143D1617047D1698143D161704700004E
:100E900000100240054A002903D091690143916185
:100EA00070479169814391617047000000100240D2
:100EB00010B5264A516801F00C01254B002927D0B6
:100EC000042927D0082927D00360516801F0F001D8
:100ED0000909204B5C5C0168E1404160546804F4FE
:100EE000E064240A1C5D21FA04F48460546804F46C
:100EF0006054E40A1B5DD940C160526802F440426C
:100F0000920B144B1B1F9A5CB1FBF2F1016110BDF7
:100F10000360DAE70360D8E7516801F470115368A1
:100F200003F48033022404EB914133B153689B03F3
:100F300007D5094B59430160C7E7074B5943016087
:100F4000C3E7034B59430160BFE7000000100240B4
:100F500000127A000400002000093D0070470000E4
:100F600010B5064C0146204600F0B0FA802120461C
:100F700000F008FA0028F9D010BD00000038014048
:100F8000AFF300800CB5002201920092274801685F
:100F900041F4803101604FF4A063016801F4003135
:100FA00000910199491C0191009911B90199994247
:100FB000F3D10168890302D50121009100E000927C
:100FC0000099012930D11A490A6842F010020A60DA
:100FD0000A6822F003020A600A6842F002020A600C
:100FE0004168416041684160416841F4806141600D
:100FF000416821F47C114160416841F4E81141608D
:10100000016841F08071016001688901FCD5416887
:1010100021F003014160416841F0020141604168F3
:10102000C1F381010229FAD10CBD00000010024079
:10103000002002407047000010B50F48016841F0E1
:101040000101016041680D4A1140416001680C4A8C
:1010500011400160016821F480210160416821F4A0
:10106000FE0141604FF41F018160FFF789FF0549D0
:101070004FF00060086010BD001002400000FFF853
:10108000FFFFF6FE08ED00E010B50A4C01212046F6
:1010900000F026F801280CD10749D1E90023521CA1
:1010A00043F100030CC12046BDE81040012100F0CF
:1010B00008B810BD0004004018000020C943018298
:1010C0007047C94301827047002904D0018841F06C
:1010D000010101807047018821F001010180704702
:1010E00002460020138A0B4092890A40002B02D04E
:1010F000002A00D001207047002A03D082890A43C9
:101100008281704782898A4382817047018921F0F8
:10111000070101817047000070B5028C22F48072D3
:101120000284028C8388848B24F0700424F00304EE
:101130000D88254322F400720E894FF6FF7404EAED
:10114000062616434A8804EA02223243114EB04270
:1011500002D0114EB04217D122F400664A8904EA47
:101160000222324322F480668A8804EA0222324351
:1011700023F4805323F400538E8904EA06161E4399
:10118000CB8904EA0313334383808583C98881872D
:10119000028470BD002C01400034014070B5028C07
:1011A00022F480520284058C8288838B23F4E043EE
:1011B00023F440760C884FF6FF7303EA042434438B
:1011C00025F400550E8903EA06362E434D8803EABE
:1011D00005353543094EB04202D0094EB04205D123
:1011E00022F480468A8903EA821232438280848311
:1011F000C988A0F84010058470BD0000002C014093
:101200000034014081877047A0F84010704700000B
:1012100030B502881B4C1C4DA0420DD0A8420BD00B
:10122000B0F1804F08D0194B984205D0184B984226
:1012300002D0184B984203D122F070034A881A4317
:10124000154B984206D0154B984203D022F44073B8
:10125000CA881A4302808A8882850A880285A04249
:101260000AD0A84208D00E4A904205D00D4A9042BA
:1012700002D00D4A904201D1097A01860121818272
:1012800030BD0000002C014000340140000400404B
:1012900000080040000C0040001000400014004016
:1012A0000040014000440140004801401FB50121B9
:1012B0000220FFF7E1FD1A4C2046FFF727FF00212F
:1012C000ADF80A10ADF806100922ADF80820472045
:1012D000ADF804008DF80C1001A92046FFF798FF27
:1012E00001212046FFF7EAFE012211462046FFF7C2
:1012F00003FF4FF4A060FFF779FB1D208DF800007D
:1013000001208DF8030002218DF801108DF80210E4
:101310006846FFF739FB01212046FFF7D5FE1FBDC8
:101320000004004070B50B4D40F22554214628467C
:1013300000F02FF801280CD1284600F0C3F8064A27
:1013400010700120507021462846BDE8704000F022
:1013500005B870BD003801401400002040F66A1244
:101360000A0A01219140C94301807047002904D035
:10137000818941F4005181817047818921F40051B4
:10138000818170470246002012880A4200D0012065
:10139000704770B5002440F66A12C1F3421301F0A1
:1013A0001F05012606FA05F2012B0CD0022B0DD0E9
:1013B000838A1340090A8E40008830400BB100B187
:1013C0000124204670BD83891340F3E7038A13404C
:1013D000F0E710B540F66A13C1F3421301F01F04A1
:1013E0000121A140012B07D0022B07D014303AB1C4
:1013F00002680A43026010BD0C30F8E71030F6E7CF
:1014000002688A43026010BD30B585B004460D46BF
:10141000208A4CF6FF710840E98801432182A089A7
:101420004EF6F3110840A9882A8911436A890243BC
:101430001143A181A08A4FF6FF410840A9890143C9
:10144000A1826846FFF734FD1D48844201D103980C
:1014500000E00298A189090408D500EBC00101EB66
:10146000001029684900B0FBF1F007E000EBC00173
:1014700001EB001029688900B0FBF1F06422B0FB99
:10148000F2F109010B096FF018056B4300EB8300C3
:10149000A3891D044FF0320307D503EBC000B0FB56
:1014A000F2F000F00700084306E003EB0010B0FB89
:1014B000F2F000F00F000843208105B030BD0000BD
:1014C000003801408088C0F308007047C1F308016C
:1014D00081807047FEE700001CB5FFF72FFBFFF788
:1014E00035F9FEF73FFFFFF7A0F8FFF729F8FFF700
:1014F000DDFEFEF71DFFDFF8EC824FF48057394622
:101500004046FFF701F86420FEF788FF3946404661
:10151000FEF7FCFF6420FEF781FF39464046FEF7E8
:10152000F3FF6420FEF77AFF39464046FEF7EEFFF0
:101530004FF4FA60FEF772FF0120FFF711FDDFF8AC
:10154000A89299F80100FFF70BFD00F06FF94FF436
:101550007A7190FBF1F590FBF1F201FB1204EE17AA
:101560002846314600F04EF9C3B22A460621012032
:10157000FFF7A8FB2846314600F044F9801DC1B2B0
:101580004FF02E024FF00100FFF748FB642C32DAD7
:101590002846314600F036F9C01DC1B24FF0300286
:1015A0004FF00100FFF73AFB4FEAE47A204651463C
:1015B00000F028F900F0FF0B2846314600F022F930
:1015C0000830C1B25B4622464FF00100FFF77AFBBC
:1015D0002846314600F016F905462046514600F0EF
:1015E00011F928180830C1B24FF06D024FF0010018
:1015F000FFF714FB25E04FEAE47A2046514600F05D
:1016000001F900F0FF0B2846314600F0FBF8C01D41
:10161000C1B25B4622464FF00100FFF753FB28465C
:10162000314600F0EFF805462046514600F0EAF852
:101630002818C01DC1B24FF06D024FF00100FFF736
:10164000EDFA642C0DDA39464046FEF75DFF642062
:10165000FEF7E4FE39464046FEF758FF6420FEF7E9
:10166000DDFE012161A20846FFF77DFBFEF7DAFFF0
:1016700089F801000246022303210120FFF7FAFA4C
:1016800059490C31881ECDE90001831E021F811FBC
:101690000838FEF77EFF0523B9F902200121022058
:1016A000FFF730FB0523B9F9042001210320FFF7E0
:1016B00029FB0523B9F9062001210420FFF722FBAD
:1016C0000523B9F9082008210220FFF71BFB052399
:1016D000B9F90A2008210320FFF714FB0523B9F903
:1016E0000C2008210420FFF70DFBFEF71DFF012849
:1016F0007FF42BAFFEF712FF89F80000FFF730FCF4
:1017000099F8000031281DD032282FD0332841D03D
:10171000342853D03528EBD1FFF772F90020FFF7BA
:101720002DF833A20D210120FFF71DFB394640465D
:10173000FEF7EAFE6420FEF771FE39464046FEF7EA
:10174000E5FE02E71E20FEF7E3FF2AA20D2101209D
:10175000FFF709FB39464046FEF7D6FE6420FEF748
:101760005DFE39464046FEF7D1FEEEE61E20FEF74E
:10177000B1FF21A20D210120FFF7F5FA39464046BD
:10178000FEF7C2FE6420FEF749FE39464046FEF7EA
:10179000BDFEDAE61520FFF72DF818A20D21012075
:1017A000FFF7E1FA39464046FEF7AEFE6420FEF749
:1017B00035FE39464046FEF7A9FEC6E61520FEF77F
:1017C000FBFF0FA20D210120FFF7CDFA394640465D
:1017D000FEF79AFE6420FEF721FE39464046FEF7EA
:1017E00095FEB2E6000C01402800002049440000AC
:1017F00053000000460000004200000052000000BC
:101800004C00000070B50124002506E00A220023E8
:10181000FEF7DAFC641C45F100050022D0F1090353
:101820008A41F3D32046294670BD00002DE9F041DE
:101830000026204D012220212846FEF769FE0F20B8
:10184000FEF7F8FD002220212846FEF761FE6F1406
:1018500039462846FEF751FE0028F9D0164C0021E3
:101860002160616039462846FEF747FE0128F9D01D
:10187000D4E90001C4E9020104460D4664220023B4
:10188000FEF7A2FC263871F100000FD24FF4AD70C4
:10189000A4FB002305FB0030002104FB01004008ED
:1018A0004FEA32004FF06401B0FBF1F630B2BDE810
:1018B000F0810000000C0140180000200000000032
:1018C000000000000000000000000000000000F820
:1018D00000000000000000333000000000100C0683
:1018E000100C0600000000000000000040C078401E
:1018F000C0784000043F04043F040400007088FCEA
:1019000008300000001820FF211E0000F008F00041
:10191000E018000000211C031E211E0000F00888B2
:10192000700000001E2123241927211010160E001C
:10193000000000000000000000000000000000E0C7
:1019400018040200000000071820400000020418DC
:10195000E00000000040201807000000404080F038
:10196000804040000202010F01020200000000F06E
:10197000000000000101011F010101000000000042
:101980000000000080B070000000000000000000B7
:101990000000000000010101010101010000000040
:1019A00000000000003030000000000000000000D7
:1019B00080601804006018060100000000E01008B4
:1019C0000810E000000F102020100F00001010F889
:1019D000000000000020203F2020000000700808C8
:1019E0000888700000302824222130000030088848
:1019F000884830000018202020110E000000C02070
:101A000010F8000000070424243F240000F8088890
:101A1000880808000019212020110E0000E010881D
:101A200088180000000F112020110E00003808084F
:101A3000C83808000000003F00000000007088085F
:101A400008887000001C222121221C0000E01008E0
:101A50000810E0000000312222110F00000000C039
:101A6000C0000000000000303000000000000080D6
:101A700000000000000080600000000000008040C6
:101A800020100800000102040810200040404040DF
:101A90004040400004040404040404000008102032
:101AA0004080000000201008040201000070480877
:101AB0000808F0000000003036010000C030C828DF
:101AC000E810E0000718272423140B000000C0389A
:101AD000E0000000203C23020227382008F8888814
:101AE00088700000203F202020110E00C030080820
:101AF00008083800071820202010080008F80808F7
:101B00000810E000203F202020100F0008F88888EF
:101B1000E8081000203F20202320180008F88888BB
:101B2000E8081000203F200003000000C030080833
:101B30000838000007182020221E020008F80800BC
:101B40000008F808203F210101213F20000808F883
:101B5000080800000020203F2020000000000808A6
:101B6000F8080800C08080807F00000008F888C066
:101B700028180800203F20012638200008F8080017
:101B800000000000203F20202020300008F8F8004E
:101B9000F8F80800203F003F003F200008F830C060
:101BA0000008F808203F200007183F00E010080850
:101BB0000810E0000F10202020100F0008F808087F
:101BC0000808F000203F210101010000E010080892
:101BD0000810E0000F18242438504F0008F88888B7
:101BE00088887000203F2000030C30200070880897
:101BF000080838000038202121221C00180808F8A5
:101C0000080818000000203F2000000008F8080025
:101C10000008F808001F202020201F0008788800F6
:101C200000C83808000007380E010000F80800F866
:101C30000008F800033C0700073C03000818688010
:101C40008068180820302C03032C30200838C80086
:101C5000C83808000000203F2000000010080808D5
:101C6000C83808002038262120201800000000FE77
:101C7000020202000000007F40404000000C30C023
:101C800000000000000000010638C000000202024F
:101C9000FE000000004040407F0000000000040201
:101CA000020204000000000000000000000000002C
:101CB000000000008080808080808080000202041C
:101CC0000000000000000000000000000000808014
:101CD000808000000019242222223F2008F8008082
:101CE00080000000003F112020110E000000008045
:101CF00080800000000E11202020110000000080D4
:101D00008088F800000E112020103F200000808005
:101D100080800000001F222222221300008080F019
:101D2000888888180020203F202000000000808044
:101D300080808000006B94949493600008F8008089
:101D400080800000203F210000203F2000809898E4
:101D5000000000000020203F202000000000008044
:101D60009898000000C08080807F000008F8000084
:101D700080808000203F24022D302000000808F8D9
:101D8000000000000020203F202000008080808094
:101D900080808000203F20003F20003F8080008026
:101DA00080800000203F210000203F200000808034
:101DB00080800000001F202020201F0080800080E5
:101DC0008000000080FFA12020110E000000008094
:101DD00080808000000E112020A0FF808080800085
:101DE0008080800020203F212000010000008080B2
:101DF000808080000033242424241900008080E0A7
:101E0000808000000000001F202000008080000073
:101E100000808000001F202020103F208080800054
:101E20000080808000010E30080601008080008064
:101E3000008080800F300C030C300F000080800089
:101E4000808080000020312E0E31200080808000B4
:101E50000080808080818E70180601000080808064
:101E6000808080000021302C222130000000000002
:101E7000807C020200000000003F404000000000A3
:101E8000FF00000000000000FF0000000002027CD4
:101E9000800000000040403F0000000000060101FB
:101EA000020204040000000000000000CC1E000834
:101EB000000000203800000028010008041F00086E
:101EC00038000020600600004401000802040608F3
:101ED00000000000010203040102030406070809D0
:101EE00000000000000000000000000000000000F2
:101EF00000000000000000000000000000000000E2
:041F000000000000DD
:04000005080000ED02
:00000001FF
